{
	"pranav.sol": {
		"EtherToTokenSwapper": {
			"abi": [
				{
					"inputs": [
						{
							"internalType": "address",
							"name": "token",
							"type": "address"
						},
						{
							"internalType": "uint256",
							"name": "minAmount",
							"type": "uint256"
						}
					],
					"name": "swapEtherToToken",
					"outputs": [
						{
							"internalType": "uint256",
							"name": "",
							"type": "uint256"
						}
					],
					"stateMutability": "payable",
					"type": "function"
				}
			],
			"devdoc": {
				"kind": "dev",
				"methods": {},
				"version": 1
			},
			"evm": {
				"assembly": "    /* \"pranav.sol\":355:1026  contract EtherToTokenSwapper is ERC20Swapper {... */\n  mstore(0x40, 0x80)\n  callvalue\n  dup1\n  iszero\n  tag_1\n  jumpi\n  0x00\n  dup1\n  revert\ntag_1:\n  pop\n  dataSize(sub_0)\n  dup1\n  dataOffset(sub_0)\n  0x00\n  codecopy\n  0x00\n  return\nstop\n\nsub_0: assembly {\n        /* \"pranav.sol\":355:1026  contract EtherToTokenSwapper is ERC20Swapper {... */\n      mstore(0x40, 0x80)\n      jumpi(tag_1, lt(calldatasize, 0x04))\n      shr(0xe0, calldataload(0x00))\n      dup1\n      0x7a2a0456\n      eq\n      tag_2\n      jumpi\n    tag_1:\n      0x00\n      dup1\n      revert\n        /* \"pranav.sol\":407:1023  function swapEtherToToken(address token, uint minAmount) public payable override returns (uint) {... */\n    tag_2:\n      tag_3\n      0x04\n      dup1\n      calldatasize\n      sub\n      dup2\n      add\n      swap1\n      tag_4\n      swap2\n      swap1\n      tag_5\n      jump\t// in\n    tag_4:\n      tag_6\n      jump\t// in\n    tag_3:\n      mload(0x40)\n      tag_7\n      swap2\n      swap1\n      tag_8\n      jump\t// in\n    tag_7:\n      mload(0x40)\n      dup1\n      swap2\n      sub\n      swap1\n      return\n    tag_6:\n        /* \"pranav.sol\":497:501  uint */\n      0x00\n        /* \"pranav.sol\":534:535  0 */\n      dup1\n        /* \"pranav.sol\":522:531  msg.value */\n      callvalue\n        /* \"pranav.sol\":522:535  msg.value > 0 */\n      gt\n        /* \"pranav.sol\":514:553  require(msg.value > 0, \"No ether sent\") */\n      tag_10\n      jumpi\n      mload(0x40)\n      0x08c379a000000000000000000000000000000000000000000000000000000000\n      dup2\n      mstore\n      0x04\n      add\n      tag_11\n      swap1\n      tag_12\n      jump\t// in\n    tag_11:\n      mload(0x40)\n      dup1\n      swap2\n      sub\n      swap1\n      revert\n    tag_10:\n        /* \"pranav.sol\":589:590  0 */\n      0x00\n        /* \"pranav.sol\":572:591  token != address(0) */\n      0xffffffffffffffffffffffffffffffffffffffff\n      and\n        /* \"pranav.sol\":572:577  token */\n      dup4\n        /* \"pranav.sol\":572:591  token != address(0) */\n      0xffffffffffffffffffffffffffffffffffffffff\n      and\n      sub\n        /* \"pranav.sol\":564:617  require(token != address(0), \"Invalid token address\") */\n      tag_13\n      jumpi\n      mload(0x40)\n      0x08c379a000000000000000000000000000000000000000000000000000000000\n      dup2\n      mstore\n      0x04\n      add\n      tag_14\n      swap1\n      tag_15\n      jump\t// in\n    tag_14:\n      mload(0x40)\n      dup1\n      swap2\n      sub\n      swap1\n      revert\n    tag_13:\n        /* \"pranav.sol\":630:641  ERC20 erc20 */\n      0x00\n        /* \"pranav.sol\":650:655  token */\n      dup4\n        /* \"pranav.sol\":630:656  ERC20 erc20 = ERC20(token) */\n      swap1\n      pop\n        /* \"pranav.sol\":669:687  uint balanceBefore */\n      0x00\n        /* \"pranav.sol\":690:695  erc20 */\n      dup2\n        /* \"pranav.sol\":690:705  erc20.balanceOf */\n      0xffffffffffffffffffffffffffffffffffffffff\n      and\n      0x70a08231\n        /* \"pranav.sol\":714:718  this */\n      address\n        /* \"pranav.sol\":690:720  erc20.balanceOf(address(this)) */\n      mload(0x40)\n      dup3\n      0xffffffff\n      and\n      0xe0\n      shl\n      dup2\n      mstore\n      0x04\n      add\n      tag_16\n      swap2\n      swap1\n      tag_17\n      jump\t// in\n    tag_16:\n      0x20\n      mload(0x40)\n      dup1\n      dup4\n      sub\n      dup2\n      dup7\n      gas\n      staticcall\n      iszero\n      dup1\n      iszero\n      tag_19\n      jumpi\n      returndatasize\n      0x00\n      dup1\n      returndatacopy\n      revert(0x00, returndatasize)\n    tag_19:\n      pop\n      pop\n      pop\n      pop\n      mload(0x40)\n      returndatasize\n      not(0x1f)\n      0x1f\n      dup3\n      add\n      and\n      dup3\n      add\n      dup1\n      0x40\n      mstore\n      pop\n      dup2\n      add\n      swap1\n      tag_20\n      swap2\n      swap1\n      tag_21\n      jump\t// in\n    tag_20:\n        /* \"pranav.sol\":669:720  uint balanceBefore = erc20.balanceOf(address(this)) */\n      swap1\n      pop\n        /* \"pranav.sol\":731:748  uint amountToSwap */\n      0x00\n        /* \"pranav.sol\":751:760  msg.value */\n      callvalue\n        /* \"pranav.sol\":731:760  uint amountToSwap = msg.value */\n      swap1\n      pop\n        /* \"pranav.sol\":771:776  erc20 */\n      dup3\n        /* \"pranav.sol\":771:785  erc20.transfer */\n      0xffffffffffffffffffffffffffffffffffffffff\n      and\n      0xa9059cbb\n        /* \"pranav.sol\":786:796  msg.sender */\n      caller\n        /* \"pranav.sol\":798:810  amountToSwap */\n      dup4\n        /* \"pranav.sol\":771:811  erc20.transfer(msg.sender, amountToSwap) */\n      mload(0x40)\n      dup4\n      0xffffffff\n      and\n      0xe0\n      shl\n      dup2\n      mstore\n      0x04\n      add\n      tag_22\n      swap3\n      swap2\n      swap1\n      tag_23\n      jump\t// in\n    tag_22:\n      0x20\n      mload(0x40)\n      dup1\n      dup4\n      sub\n      dup2\n      0x00\n      dup8\n      gas\n      call\n      iszero\n      dup1\n      iszero\n      tag_25\n      jumpi\n      returndatasize\n      0x00\n      dup1\n      returndatacopy\n      revert(0x00, returndatasize)\n    tag_25:\n      pop\n      pop\n      pop\n      pop\n      mload(0x40)\n      returndatasize\n      not(0x1f)\n      0x1f\n      dup3\n      add\n      and\n      dup3\n      add\n      dup1\n      0x40\n      mstore\n      pop\n      dup2\n      add\n      swap1\n      tag_26\n      swap2\n      swap1\n      tag_27\n      jump\t// in\n    tag_26:\n      pop\n        /* \"pranav.sol\":822:839  uint balanceAfter */\n      0x00\n        /* \"pranav.sol\":842:847  erc20 */\n      dup4\n        /* \"pranav.sol\":842:857  erc20.balanceOf */\n      0xffffffffffffffffffffffffffffffffffffffff\n      and\n      0x70a08231\n        /* \"pranav.sol\":866:870  this */\n      address\n        /* \"pranav.sol\":842:872  erc20.balanceOf(address(this)) */\n      mload(0x40)\n      dup3\n      0xffffffff\n      and\n      0xe0\n      shl\n      dup2\n      mstore\n      0x04\n      add\n      tag_28\n      swap2\n      swap1\n      tag_17\n      jump\t// in\n    tag_28:\n      0x20\n      mload(0x40)\n      dup1\n      dup4\n      sub\n      dup2\n      dup7\n      gas\n      staticcall\n      iszero\n      dup1\n      iszero\n      tag_30\n      jumpi\n      returndatasize\n      0x00\n      dup1\n      returndatacopy\n      revert(0x00, returndatasize)\n    tag_30:\n      pop\n      pop\n      pop\n      pop\n      mload(0x40)\n      returndatasize\n      not(0x1f)\n      0x1f\n      dup3\n      add\n      and\n      dup3\n      add\n      dup1\n      0x40\n      mstore\n      pop\n      dup2\n      add\n      swap1\n      tag_31\n      swap2\n      swap1\n      tag_21\n      jump\t// in\n    tag_31:\n        /* \"pranav.sol\":822:872  uint balanceAfter = erc20.balanceOf(address(this)) */\n      swap1\n      pop\n        /* \"pranav.sol\":925:934  minAmount */\n      dup6\n        /* \"pranav.sol\":908:921  balanceBefore */\n      dup4\n        /* \"pranav.sol\":893:905  balanceAfter */\n      dup3\n        /* \"pranav.sol\":893:921  balanceAfter - balanceBefore */\n      tag_32\n      swap2\n      swap1\n      tag_33\n      jump\t// in\n    tag_32:\n        /* \"pranav.sol\":893:934  balanceAfter - balanceBefore >= minAmount */\n      lt\n      iszero\n        /* \"pranav.sol\":885:967  require(balanceAfter - balanceBefore >= minAmount, \"Minimum token amount not met\") */\n      tag_34\n      jumpi\n      mload(0x40)\n      0x08c379a000000000000000000000000000000000000000000000000000000000\n      dup2\n      mstore\n      0x04\n      add\n      tag_35\n      swap1\n      tag_36\n      jump\t// in\n    tag_35:\n      mload(0x40)\n      dup1\n      swap2\n      sub\n      swap1\n      revert\n    tag_34:\n        /* \"pranav.sol\":1002:1015  balanceBefore */\n      dup3\n        /* \"pranav.sol\":987:999  balanceAfter */\n      dup2\n        /* \"pranav.sol\":987:1015  balanceAfter - balanceBefore */\n      tag_37\n      swap2\n      swap1\n      tag_33\n      jump\t// in\n    tag_37:\n        /* \"pranav.sol\":980:1015  return balanceAfter - balanceBefore */\n      swap5\n      pop\n      pop\n      pop\n      pop\n      pop\n        /* \"pranav.sol\":407:1023  function swapEtherToToken(address token, uint minAmount) public payable override returns (uint) {... */\n      swap3\n      swap2\n      pop\n      pop\n      jump\t// out\n        /* \"#utility.yul\":88:205   */\n    tag_39:\n        /* \"#utility.yul\":197:198   */\n      0x00\n        /* \"#utility.yul\":194:195   */\n      dup1\n        /* \"#utility.yul\":187:199   */\n      revert\n        /* \"#utility.yul\":334:460   */\n    tag_41:\n        /* \"#utility.yul\":371:378   */\n      0x00\n        /* \"#utility.yul\":411:453   */\n      0xffffffffffffffffffffffffffffffffffffffff\n        /* \"#utility.yul\":404:409   */\n      dup3\n        /* \"#utility.yul\":400:454   */\n      and\n        /* \"#utility.yul\":389:454   */\n      swap1\n      pop\n        /* \"#utility.yul\":334:460   */\n      swap2\n      swap1\n      pop\n      jump\t// out\n        /* \"#utility.yul\":466:562   */\n    tag_42:\n        /* \"#utility.yul\":503:510   */\n      0x00\n        /* \"#utility.yul\":532:556   */\n      tag_68\n        /* \"#utility.yul\":550:555   */\n      dup3\n        /* \"#utility.yul\":532:556   */\n      tag_41\n      jump\t// in\n    tag_68:\n        /* \"#utility.yul\":521:556   */\n      swap1\n      pop\n        /* \"#utility.yul\":466:562   */\n      swap2\n      swap1\n      pop\n      jump\t// out\n        /* \"#utility.yul\":568:690   */\n    tag_43:\n        /* \"#utility.yul\":641:665   */\n      tag_70\n        /* \"#utility.yul\":659:664   */\n      dup2\n        /* \"#utility.yul\":641:665   */\n      tag_42\n      jump\t// in\n    tag_70:\n        /* \"#utility.yul\":634:639   */\n      dup2\n        /* \"#utility.yul\":631:666   */\n      eq\n        /* \"#utility.yul\":621:684   */\n      tag_71\n      jumpi\n        /* \"#utility.yul\":680:681   */\n      0x00\n        /* \"#utility.yul\":677:678   */\n      dup1\n        /* \"#utility.yul\":670:682   */\n      revert\n        /* \"#utility.yul\":621:684   */\n    tag_71:\n        /* \"#utility.yul\":568:690   */\n      pop\n      jump\t// out\n        /* \"#utility.yul\":696:835   */\n    tag_44:\n        /* \"#utility.yul\":742:747   */\n      0x00\n        /* \"#utility.yul\":780:786   */\n      dup2\n        /* \"#utility.yul\":767:787   */\n      calldataload\n        /* \"#utility.yul\":758:787   */\n      swap1\n      pop\n        /* \"#utility.yul\":796:829   */\n      tag_73\n        /* \"#utility.yul\":823:828   */\n      dup2\n        /* \"#utility.yul\":796:829   */\n      tag_43\n      jump\t// in\n    tag_73:\n        /* \"#utility.yul\":696:835   */\n      swap3\n      swap2\n      pop\n      pop\n      jump\t// out\n        /* \"#utility.yul\":841:918   */\n    tag_45:\n        /* \"#utility.yul\":878:885   */\n      0x00\n        /* \"#utility.yul\":907:912   */\n      dup2\n        /* \"#utility.yul\":896:912   */\n      swap1\n      pop\n        /* \"#utility.yul\":841:918   */\n      swap2\n      swap1\n      pop\n      jump\t// out\n        /* \"#utility.yul\":924:1046   */\n    tag_46:\n        /* \"#utility.yul\":997:1021   */\n      tag_76\n        /* \"#utility.yul\":1015:1020   */\n      dup2\n        /* \"#utility.yul\":997:1021   */\n      tag_45\n      jump\t// in\n    tag_76:\n        /* \"#utility.yul\":990:995   */\n      dup2\n        /* \"#utility.yul\":987:1022   */\n      eq\n        /* \"#utility.yul\":977:1040   */\n      tag_77\n      jumpi\n        /* \"#utility.yul\":1036:1037   */\n      0x00\n        /* \"#utility.yul\":1033:1034   */\n      dup1\n        /* \"#utility.yul\":1026:1038   */\n      revert\n        /* \"#utility.yul\":977:1040   */\n    tag_77:\n        /* \"#utility.yul\":924:1046   */\n      pop\n      jump\t// out\n        /* \"#utility.yul\":1052:1191   */\n    tag_47:\n        /* \"#utility.yul\":1098:1103   */\n      0x00\n        /* \"#utility.yul\":1136:1142   */\n      dup2\n        /* \"#utility.yul\":1123:1143   */\n      calldataload\n        /* \"#utility.yul\":1114:1143   */\n      swap1\n      pop\n        /* \"#utility.yul\":1152:1185   */\n      tag_79\n        /* \"#utility.yul\":1179:1184   */\n      dup2\n        /* \"#utility.yul\":1152:1185   */\n      tag_46\n      jump\t// in\n    tag_79:\n        /* \"#utility.yul\":1052:1191   */\n      swap3\n      swap2\n      pop\n      pop\n      jump\t// out\n        /* \"#utility.yul\":1197:1671   */\n    tag_5:\n        /* \"#utility.yul\":1265:1271   */\n      0x00\n        /* \"#utility.yul\":1273:1279   */\n      dup1\n        /* \"#utility.yul\":1322:1324   */\n      0x40\n        /* \"#utility.yul\":1310:1319   */\n      dup4\n        /* \"#utility.yul\":1301:1308   */\n      dup6\n        /* \"#utility.yul\":1297:1320   */\n      sub\n        /* \"#utility.yul\":1293:1325   */\n      slt\n        /* \"#utility.yul\":1290:1409   */\n      iszero\n      tag_81\n      jumpi\n        /* \"#utility.yul\":1328:1407   */\n      tag_82\n      tag_39\n      jump\t// in\n    tag_82:\n        /* \"#utility.yul\":1290:1409   */\n    tag_81:\n        /* \"#utility.yul\":1448:1449   */\n      0x00\n        /* \"#utility.yul\":1473:1526   */\n      tag_83\n        /* \"#utility.yul\":1518:1525   */\n      dup6\n        /* \"#utility.yul\":1509:1515   */\n      dup3\n        /* \"#utility.yul\":1498:1507   */\n      dup7\n        /* \"#utility.yul\":1494:1516   */\n      add\n        /* \"#utility.yul\":1473:1526   */\n      tag_44\n      jump\t// in\n    tag_83:\n        /* \"#utility.yul\":1463:1526   */\n      swap3\n      pop\n        /* \"#utility.yul\":1419:1536   */\n      pop\n        /* \"#utility.yul\":1575:1577   */\n      0x20\n        /* \"#utility.yul\":1601:1654   */\n      tag_84\n        /* \"#utility.yul\":1646:1653   */\n      dup6\n        /* \"#utility.yul\":1637:1643   */\n      dup3\n        /* \"#utility.yul\":1626:1635   */\n      dup7\n        /* \"#utility.yul\":1622:1644   */\n      add\n        /* \"#utility.yul\":1601:1654   */\n      tag_47\n      jump\t// in\n    tag_84:\n        /* \"#utility.yul\":1591:1654   */\n      swap2\n      pop\n        /* \"#utility.yul\":1546:1664   */\n      pop\n        /* \"#utility.yul\":1197:1671   */\n      swap3\n      pop\n      swap3\n      swap1\n      pop\n      jump\t// out\n        /* \"#utility.yul\":1677:1795   */\n    tag_48:\n        /* \"#utility.yul\":1764:1788   */\n      tag_86\n        /* \"#utility.yul\":1782:1787   */\n      dup2\n        /* \"#utility.yul\":1764:1788   */\n      tag_45\n      jump\t// in\n    tag_86:\n        /* \"#utility.yul\":1759:1762   */\n      dup3\n        /* \"#utility.yul\":1752:1789   */\n      mstore\n        /* \"#utility.yul\":1677:1795   */\n      pop\n      pop\n      jump\t// out\n        /* \"#utility.yul\":1801:2023   */\n    tag_8:\n        /* \"#utility.yul\":1894:1898   */\n      0x00\n        /* \"#utility.yul\":1932:1934   */\n      0x20\n        /* \"#utility.yul\":1921:1930   */\n      dup3\n        /* \"#utility.yul\":1917:1935   */\n      add\n        /* \"#utility.yul\":1909:1935   */\n      swap1\n      pop\n        /* \"#utility.yul\":1945:2016   */\n      tag_88\n        /* \"#utility.yul\":2013:2014   */\n      0x00\n        /* \"#utility.yul\":2002:2011   */\n      dup4\n        /* \"#utility.yul\":1998:2015   */\n      add\n        /* \"#utility.yul\":1989:1995   */\n      dup5\n        /* \"#utility.yul\":1945:2016   */\n      tag_48\n      jump\t// in\n    tag_88:\n        /* \"#utility.yul\":1801:2023   */\n      swap3\n      swap2\n      pop\n      pop\n      jump\t// out\n        /* \"#utility.yul\":2029:2198   */\n    tag_49:\n        /* \"#utility.yul\":2113:2124   */\n      0x00\n        /* \"#utility.yul\":2147:2153   */\n      dup3\n        /* \"#utility.yul\":2142:2145   */\n      dup3\n        /* \"#utility.yul\":2135:2154   */\n      mstore\n        /* \"#utility.yul\":2187:2191   */\n      0x20\n        /* \"#utility.yul\":2182:2185   */\n      dup3\n        /* \"#utility.yul\":2178:2192   */\n      add\n        /* \"#utility.yul\":2163:2192   */\n      swap1\n      pop\n        /* \"#utility.yul\":2029:2198   */\n      swap3\n      swap2\n      pop\n      pop\n      jump\t// out\n        /* \"#utility.yul\":2204:2367   */\n    tag_50:\n        /* \"#utility.yul\":2344:2359   */\n      0x4e6f2065746865722073656e7400000000000000000000000000000000000000\n        /* \"#utility.yul\":2340:2341   */\n      0x00\n        /* \"#utility.yul\":2332:2338   */\n      dup3\n        /* \"#utility.yul\":2328:2342   */\n      add\n        /* \"#utility.yul\":2321:2360   */\n      mstore\n        /* \"#utility.yul\":2204:2367   */\n      pop\n      jump\t// out\n        /* \"#utility.yul\":2373:2739   */\n    tag_51:\n        /* \"#utility.yul\":2515:2518   */\n      0x00\n        /* \"#utility.yul\":2536:2603   */\n      tag_92\n        /* \"#utility.yul\":2600:2602   */\n      0x0d\n        /* \"#utility.yul\":2595:2598   */\n      dup4\n        /* \"#utility.yul\":2536:2603   */\n      tag_49\n      jump\t// in\n    tag_92:\n        /* \"#utility.yul\":2529:2603   */\n      swap2\n      pop\n        /* \"#utility.yul\":2612:2705   */\n      tag_93\n        /* \"#utility.yul\":2701:2704   */\n      dup3\n        /* \"#utility.yul\":2612:2705   */\n      tag_50\n      jump\t// in\n    tag_93:\n        /* \"#utility.yul\":2730:2732   */\n      0x20\n        /* \"#utility.yul\":2725:2728   */\n      dup3\n        /* \"#utility.yul\":2721:2733   */\n      add\n        /* \"#utility.yul\":2714:2733   */\n      swap1\n      pop\n        /* \"#utility.yul\":2373:2739   */\n      swap2\n      swap1\n      pop\n      jump\t// out\n        /* \"#utility.yul\":2745:3164   */\n    tag_12:\n        /* \"#utility.yul\":2911:2915   */\n      0x00\n        /* \"#utility.yul\":2949:2951   */\n      0x20\n        /* \"#utility.yul\":2938:2947   */\n      dup3\n        /* \"#utility.yul\":2934:2952   */\n      add\n        /* \"#utility.yul\":2926:2952   */\n      swap1\n      pop\n        /* \"#utility.yul\":2998:3007   */\n      dup2\n        /* \"#utility.yul\":2992:2996   */\n      dup2\n        /* \"#utility.yul\":2988:3008   */\n      sub\n        /* \"#utility.yul\":2984:2985   */\n      0x00\n        /* \"#utility.yul\":2973:2982   */\n      dup4\n        /* \"#utility.yul\":2969:2986   */\n      add\n        /* \"#utility.yul\":2962:3009   */\n      mstore\n        /* \"#utility.yul\":3026:3157   */\n      tag_95\n        /* \"#utility.yul\":3152:3156   */\n      dup2\n        /* \"#utility.yul\":3026:3157   */\n      tag_51\n      jump\t// in\n    tag_95:\n        /* \"#utility.yul\":3018:3157   */\n      swap1\n      pop\n        /* \"#utility.yul\":2745:3164   */\n      swap2\n      swap1\n      pop\n      jump\t// out\n        /* \"#utility.yul\":3170:3341   */\n    tag_52:\n        /* \"#utility.yul\":3310:3333   */\n      0x496e76616c696420746f6b656e20616464726573730000000000000000000000\n        /* \"#utility.yul\":3306:3307   */\n      0x00\n        /* \"#utility.yul\":3298:3304   */\n      dup3\n        /* \"#utility.yul\":3294:3308   */\n      add\n        /* \"#utility.yul\":3287:3334   */\n      mstore\n        /* \"#utility.yul\":3170:3341   */\n      pop\n      jump\t// out\n        /* \"#utility.yul\":3347:3713   */\n    tag_53:\n        /* \"#utility.yul\":3489:3492   */\n      0x00\n        /* \"#utility.yul\":3510:3577   */\n      tag_98\n        /* \"#utility.yul\":3574:3576   */\n      0x15\n        /* \"#utility.yul\":3569:3572   */\n      dup4\n        /* \"#utility.yul\":3510:3577   */\n      tag_49\n      jump\t// in\n    tag_98:\n        /* \"#utility.yul\":3503:3577   */\n      swap2\n      pop\n        /* \"#utility.yul\":3586:3679   */\n      tag_99\n        /* \"#utility.yul\":3675:3678   */\n      dup3\n        /* \"#utility.yul\":3586:3679   */\n      tag_52\n      jump\t// in\n    tag_99:\n        /* \"#utility.yul\":3704:3706   */\n      0x20\n        /* \"#utility.yul\":3699:3702   */\n      dup3\n        /* \"#utility.yul\":3695:3707   */\n      add\n        /* \"#utility.yul\":3688:3707   */\n      swap1\n      pop\n        /* \"#utility.yul\":3347:3713   */\n      swap2\n      swap1\n      pop\n      jump\t// out\n        /* \"#utility.yul\":3719:4138   */\n    tag_15:\n        /* \"#utility.yul\":3885:3889   */\n      0x00\n        /* \"#utility.yul\":3923:3925   */\n      0x20\n        /* \"#utility.yul\":3912:3921   */\n      dup3\n        /* \"#utility.yul\":3908:3926   */\n      add\n        /* \"#utility.yul\":3900:3926   */\n      swap1\n      pop\n        /* \"#utility.yul\":3972:3981   */\n      dup2\n        /* \"#utility.yul\":3966:3970   */\n      dup2\n        /* \"#utility.yul\":3962:3982   */\n      sub\n        /* \"#utility.yul\":3958:3959   */\n      0x00\n        /* \"#utility.yul\":3947:3956   */\n      dup4\n        /* \"#utility.yul\":3943:3960   */\n      add\n        /* \"#utility.yul\":3936:3983   */\n      mstore\n        /* \"#utility.yul\":4000:4131   */\n      tag_101\n        /* \"#utility.yul\":4126:4130   */\n      dup2\n        /* \"#utility.yul\":4000:4131   */\n      tag_53\n      jump\t// in\n    tag_101:\n        /* \"#utility.yul\":3992:4131   */\n      swap1\n      pop\n        /* \"#utility.yul\":3719:4138   */\n      swap2\n      swap1\n      pop\n      jump\t// out\n        /* \"#utility.yul\":4144:4262   */\n    tag_54:\n        /* \"#utility.yul\":4231:4255   */\n      tag_103\n        /* \"#utility.yul\":4249:4254   */\n      dup2\n        /* \"#utility.yul\":4231:4255   */\n      tag_42\n      jump\t// in\n    tag_103:\n        /* \"#utility.yul\":4226:4229   */\n      dup3\n        /* \"#utility.yul\":4219:4256   */\n      mstore\n        /* \"#utility.yul\":4144:4262   */\n      pop\n      pop\n      jump\t// out\n        /* \"#utility.yul\":4268:4490   */\n    tag_17:\n        /* \"#utility.yul\":4361:4365   */\n      0x00\n        /* \"#utility.yul\":4399:4401   */\n      0x20\n        /* \"#utility.yul\":4388:4397   */\n      dup3\n        /* \"#utility.yul\":4384:4402   */\n      add\n        /* \"#utility.yul\":4376:4402   */\n      swap1\n      pop\n        /* \"#utility.yul\":4412:4483   */\n      tag_105\n        /* \"#utility.yul\":4480:4481   */\n      0x00\n        /* \"#utility.yul\":4469:4478   */\n      dup4\n        /* \"#utility.yul\":4465:4482   */\n      add\n        /* \"#utility.yul\":4456:4462   */\n      dup5\n        /* \"#utility.yul\":4412:4483   */\n      tag_54\n      jump\t// in\n    tag_105:\n        /* \"#utility.yul\":4268:4490   */\n      swap3\n      swap2\n      pop\n      pop\n      jump\t// out\n        /* \"#utility.yul\":4496:4639   */\n    tag_55:\n        /* \"#utility.yul\":4553:4558   */\n      0x00\n        /* \"#utility.yul\":4584:4590   */\n      dup2\n        /* \"#utility.yul\":4578:4591   */\n      mload\n        /* \"#utility.yul\":4569:4591   */\n      swap1\n      pop\n        /* \"#utility.yul\":4600:4633   */\n      tag_107\n        /* \"#utility.yul\":4627:4632   */\n      dup2\n        /* \"#utility.yul\":4600:4633   */\n      tag_46\n      jump\t// in\n    tag_107:\n        /* \"#utility.yul\":4496:4639   */\n      swap3\n      swap2\n      pop\n      pop\n      jump\t// out\n        /* \"#utility.yul\":4645:4996   */\n    tag_21:\n        /* \"#utility.yul\":4715:4721   */\n      0x00\n        /* \"#utility.yul\":4764:4766   */\n      0x20\n        /* \"#utility.yul\":4752:4761   */\n      dup3\n        /* \"#utility.yul\":4743:4750   */\n      dup5\n        /* \"#utility.yul\":4739:4762   */\n      sub\n        /* \"#utility.yul\":4735:4767   */\n      slt\n        /* \"#utility.yul\":4732:4851   */\n      iszero\n      tag_109\n      jumpi\n        /* \"#utility.yul\":4770:4849   */\n      tag_110\n      tag_39\n      jump\t// in\n    tag_110:\n        /* \"#utility.yul\":4732:4851   */\n    tag_109:\n        /* \"#utility.yul\":4890:4891   */\n      0x00\n        /* \"#utility.yul\":4915:4979   */\n      tag_111\n        /* \"#utility.yul\":4971:4978   */\n      dup5\n        /* \"#utility.yul\":4962:4968   */\n      dup3\n        /* \"#utility.yul\":4951:4960   */\n      dup6\n        /* \"#utility.yul\":4947:4969   */\n      add\n        /* \"#utility.yul\":4915:4979   */\n      tag_55\n      jump\t// in\n    tag_111:\n        /* \"#utility.yul\":4905:4979   */\n      swap2\n      pop\n        /* \"#utility.yul\":4861:4989   */\n      pop\n        /* \"#utility.yul\":4645:4996   */\n      swap3\n      swap2\n      pop\n      pop\n      jump\t// out\n        /* \"#utility.yul\":5002:5334   */\n    tag_23:\n        /* \"#utility.yul\":5123:5127   */\n      0x00\n        /* \"#utility.yul\":5161:5163   */\n      0x40\n        /* \"#utility.yul\":5150:5159   */\n      dup3\n        /* \"#utility.yul\":5146:5164   */\n      add\n        /* \"#utility.yul\":5138:5164   */\n      swap1\n      pop\n        /* \"#utility.yul\":5174:5245   */\n      tag_113\n        /* \"#utility.yul\":5242:5243   */\n      0x00\n        /* \"#utility.yul\":5231:5240   */\n      dup4\n        /* \"#utility.yul\":5227:5244   */\n      add\n        /* \"#utility.yul\":5218:5224   */\n      dup6\n        /* \"#utility.yul\":5174:5245   */\n      tag_54\n      jump\t// in\n    tag_113:\n        /* \"#utility.yul\":5255:5327   */\n      tag_114\n        /* \"#utility.yul\":5323:5325   */\n      0x20\n        /* \"#utility.yul\":5312:5321   */\n      dup4\n        /* \"#utility.yul\":5308:5326   */\n      add\n        /* \"#utility.yul\":5299:5305   */\n      dup5\n        /* \"#utility.yul\":5255:5327   */\n      tag_48\n      jump\t// in\n    tag_114:\n        /* \"#utility.yul\":5002:5334   */\n      swap4\n      swap3\n      pop\n      pop\n      pop\n      jump\t// out\n        /* \"#utility.yul\":5340:5430   */\n    tag_56:\n        /* \"#utility.yul\":5374:5381   */\n      0x00\n        /* \"#utility.yul\":5417:5422   */\n      dup2\n        /* \"#utility.yul\":5410:5423   */\n      iszero\n        /* \"#utility.yul\":5403:5424   */\n      iszero\n        /* \"#utility.yul\":5392:5424   */\n      swap1\n      pop\n        /* \"#utility.yul\":5340:5430   */\n      swap2\n      swap1\n      pop\n      jump\t// out\n        /* \"#utility.yul\":5436:5552   */\n    tag_57:\n        /* \"#utility.yul\":5506:5527   */\n      tag_117\n        /* \"#utility.yul\":5521:5526   */\n      dup2\n        /* \"#utility.yul\":5506:5527   */\n      tag_56\n      jump\t// in\n    tag_117:\n        /* \"#utility.yul\":5499:5504   */\n      dup2\n        /* \"#utility.yul\":5496:5528   */\n      eq\n        /* \"#utility.yul\":5486:5546   */\n      tag_118\n      jumpi\n        /* \"#utility.yul\":5542:5543   */\n      0x00\n        /* \"#utility.yul\":5539:5540   */\n      dup1\n        /* \"#utility.yul\":5532:5544   */\n      revert\n        /* \"#utility.yul\":5486:5546   */\n    tag_118:\n        /* \"#utility.yul\":5436:5552   */\n      pop\n      jump\t// out\n        /* \"#utility.yul\":5558:5695   */\n    tag_58:\n        /* \"#utility.yul\":5612:5617   */\n      0x00\n        /* \"#utility.yul\":5643:5649   */\n      dup2\n        /* \"#utility.yul\":5637:5650   */\n      mload\n        /* \"#utility.yul\":5628:5650   */\n      swap1\n      pop\n        /* \"#utility.yul\":5659:5689   */\n      tag_120\n        /* \"#utility.yul\":5683:5688   */\n      dup2\n        /* \"#utility.yul\":5659:5689   */\n      tag_57\n      jump\t// in\n    tag_120:\n        /* \"#utility.yul\":5558:5695   */\n      swap3\n      swap2\n      pop\n      pop\n      jump\t// out\n        /* \"#utility.yul\":5701:6046   */\n    tag_27:\n        /* \"#utility.yul\":5768:5774   */\n      0x00\n        /* \"#utility.yul\":5817:5819   */\n      0x20\n        /* \"#utility.yul\":5805:5814   */\n      dup3\n        /* \"#utility.yul\":5796:5803   */\n      dup5\n        /* \"#utility.yul\":5792:5815   */\n      sub\n        /* \"#utility.yul\":5788:5820   */\n      slt\n        /* \"#utility.yul\":5785:5904   */\n      iszero\n      tag_122\n      jumpi\n        /* \"#utility.yul\":5823:5902   */\n      tag_123\n      tag_39\n      jump\t// in\n    tag_123:\n        /* \"#utility.yul\":5785:5904   */\n    tag_122:\n        /* \"#utility.yul\":5943:5944   */\n      0x00\n        /* \"#utility.yul\":5968:6029   */\n      tag_124\n        /* \"#utility.yul\":6021:6028   */\n      dup5\n        /* \"#utility.yul\":6012:6018   */\n      dup3\n        /* \"#utility.yul\":6001:6010   */\n      dup6\n        /* \"#utility.yul\":5997:6019   */\n      add\n        /* \"#utility.yul\":5968:6029   */\n      tag_58\n      jump\t// in\n    tag_124:\n        /* \"#utility.yul\":5958:6029   */\n      swap2\n      pop\n        /* \"#utility.yul\":5914:6039   */\n      pop\n        /* \"#utility.yul\":5701:6046   */\n      swap3\n      swap2\n      pop\n      pop\n      jump\t// out\n        /* \"#utility.yul\":6052:6232   */\n    tag_59:\n        /* \"#utility.yul\":6100:6177   */\n      0x4e487b7100000000000000000000000000000000000000000000000000000000\n        /* \"#utility.yul\":6097:6098   */\n      0x00\n        /* \"#utility.yul\":6090:6178   */\n      mstore\n        /* \"#utility.yul\":6197:6201   */\n      0x11\n        /* \"#utility.yul\":6194:6195   */\n      0x04\n        /* \"#utility.yul\":6187:6202   */\n      mstore\n        /* \"#utility.yul\":6221:6225   */\n      0x24\n        /* \"#utility.yul\":6218:6219   */\n      0x00\n        /* \"#utility.yul\":6211:6226   */\n      revert\n        /* \"#utility.yul\":6238:6432   */\n    tag_33:\n        /* \"#utility.yul\":6278:6282   */\n      0x00\n        /* \"#utility.yul\":6298:6318   */\n      tag_127\n        /* \"#utility.yul\":6316:6317   */\n      dup3\n        /* \"#utility.yul\":6298:6318   */\n      tag_45\n      jump\t// in\n    tag_127:\n        /* \"#utility.yul\":6293:6318   */\n      swap2\n      pop\n        /* \"#utility.yul\":6332:6352   */\n      tag_128\n        /* \"#utility.yul\":6350:6351   */\n      dup4\n        /* \"#utility.yul\":6332:6352   */\n      tag_45\n      jump\t// in\n    tag_128:\n        /* \"#utility.yul\":6327:6352   */\n      swap3\n      pop\n        /* \"#utility.yul\":6376:6377   */\n      dup3\n        /* \"#utility.yul\":6373:6374   */\n      dup3\n        /* \"#utility.yul\":6369:6378   */\n      sub\n        /* \"#utility.yul\":6361:6378   */\n      swap1\n      pop\n        /* \"#utility.yul\":6400:6401   */\n      dup2\n        /* \"#utility.yul\":6394:6398   */\n      dup2\n        /* \"#utility.yul\":6391:6402   */\n      gt\n        /* \"#utility.yul\":6388:6425   */\n      iszero\n      tag_129\n      jumpi\n        /* \"#utility.yul\":6405:6423   */\n      tag_130\n      tag_59\n      jump\t// in\n    tag_130:\n        /* \"#utility.yul\":6388:6425   */\n    tag_129:\n        /* \"#utility.yul\":6238:6432   */\n      swap3\n      swap2\n      pop\n      pop\n      jump\t// out\n        /* \"#utility.yul\":6438:6616   */\n    tag_60:\n        /* \"#utility.yul\":6578:6608   */\n      0x4d696e696d756d20746f6b656e20616d6f756e74206e6f74206d657400000000\n        /* \"#utility.yul\":6574:6575   */\n      0x00\n        /* \"#utility.yul\":6566:6572   */\n      dup3\n        /* \"#utility.yul\":6562:6576   */\n      add\n        /* \"#utility.yul\":6555:6609   */\n      mstore\n        /* \"#utility.yul\":6438:6616   */\n      pop\n      jump\t// out\n        /* \"#utility.yul\":6622:6988   */\n    tag_61:\n        /* \"#utility.yul\":6764:6767   */\n      0x00\n        /* \"#utility.yul\":6785:6852   */\n      tag_133\n        /* \"#utility.yul\":6849:6851   */\n      0x1c\n        /* \"#utility.yul\":6844:6847   */\n      dup4\n        /* \"#utility.yul\":6785:6852   */\n      tag_49\n      jump\t// in\n    tag_133:\n        /* \"#utility.yul\":6778:6852   */\n      swap2\n      pop\n        /* \"#utility.yul\":6861:6954   */\n      tag_134\n        /* \"#utility.yul\":6950:6953   */\n      dup3\n        /* \"#utility.yul\":6861:6954   */\n      tag_60\n      jump\t// in\n    tag_134:\n        /* \"#utility.yul\":6979:6981   */\n      0x20\n        /* \"#utility.yul\":6974:6977   */\n      dup3\n        /* \"#utility.yul\":6970:6982   */\n      add\n        /* \"#utility.yul\":6963:6982   */\n      swap1\n      pop\n        /* \"#utility.yul\":6622:6988   */\n      swap2\n      swap1\n      pop\n      jump\t// out\n        /* \"#utility.yul\":6994:7413   */\n    tag_36:\n        /* \"#utility.yul\":7160:7164   */\n      0x00\n        /* \"#utility.yul\":7198:7200   */\n      0x20\n        /* \"#utility.yul\":7187:7196   */\n      dup3\n        /* \"#utility.yul\":7183:7201   */\n      add\n        /* \"#utility.yul\":7175:7201   */\n      swap1\n      pop\n        /* \"#utility.yul\":7247:7256   */\n      dup2\n        /* \"#utility.yul\":7241:7245   */\n      dup2\n        /* \"#utility.yul\":7237:7257   */\n      sub\n        /* \"#utility.yul\":7233:7234   */\n      0x00\n        /* \"#utility.yul\":7222:7231   */\n      dup4\n        /* \"#utility.yul\":7218:7235   */\n      add\n        /* \"#utility.yul\":7211:7258   */\n      mstore\n        /* \"#utility.yul\":7275:7406   */\n      tag_136\n        /* \"#utility.yul\":7401:7405   */\n      dup2\n        /* \"#utility.yul\":7275:7406   */\n      tag_61\n      jump\t// in\n    tag_136:\n        /* \"#utility.yul\":7267:7406   */\n      swap1\n      pop\n        /* \"#utility.yul\":6994:7413   */\n      swap2\n      swap1\n      pop\n      jump\t// out\n\n    auxdata: 0xa2646970667358221220063347406ba75f82c2cccdc4be84f3d2b12933ae5bd16a027f5651a9031f3fe664736f6c63430008120033\n}\n",
				"bytecode": {
					"linkReferences": {},
					"object": "608060405234801561001057600080fd5b506106dc806100206000396000f3fe60806040526004361061001e5760003560e01c80637a2a045614610023575b600080fd5b61003d6004803603810190610038919061038a565b610053565b60405161004a91906103d9565b60405180910390f35b6000803411610097576040517f08c379a000000000000000000000000000000000000000000000000000000000815260040161008e90610451565b60405180910390fd5b600073ffffffffffffffffffffffffffffffffffffffff168373ffffffffffffffffffffffffffffffffffffffff1603610106576040517f08c379a00000000000000000000000000000000000000000000000000000000081526004016100fd906104bd565b60405180910390fd5b600083905060008173ffffffffffffffffffffffffffffffffffffffff166370a08231306040518263ffffffff1660e01b815260040161014691906104ec565b602060405180830381865afa158015610163573d6000803e3d6000fd5b505050506040513d601f19601f82011682018060405250810190610187919061051c565b905060003490508273ffffffffffffffffffffffffffffffffffffffff1663a9059cbb33836040518363ffffffff1660e01b81526004016101c9929190610549565b6020604051808303816000875af11580156101e8573d6000803e3d6000fd5b505050506040513d601f19601f8201168201806040525081019061020c91906105aa565b5060008373ffffffffffffffffffffffffffffffffffffffff166370a08231306040518263ffffffff1660e01b815260040161024891906104ec565b602060405180830381865afa158015610265573d6000803e3d6000fd5b505050506040513d601f19601f82011682018060405250810190610289919061051c565b90508583826102989190610606565b10156102d9576040517f08c379a00000000000000000000000000000000000000000000000000000000081526004016102d090610686565b60405180910390fd5b82816102e59190610606565b94505050505092915050565b600080fd5b600073ffffffffffffffffffffffffffffffffffffffff82169050919050565b6000610321826102f6565b9050919050565b61033181610316565b811461033c57600080fd5b50565b60008135905061034e81610328565b92915050565b6000819050919050565b61036781610354565b811461037257600080fd5b50565b6000813590506103848161035e565b92915050565b600080604083850312156103a1576103a06102f1565b5b60006103af8582860161033f565b92505060206103c085828601610375565b9150509250929050565b6103d381610354565b82525050565b60006020820190506103ee60008301846103ca565b92915050565b600082825260208201905092915050565b7f4e6f2065746865722073656e7400000000000000000000000000000000000000600082015250565b600061043b600d836103f4565b915061044682610405565b602082019050919050565b6000602082019050818103600083015261046a8161042e565b9050919050565b7f496e76616c696420746f6b656e20616464726573730000000000000000000000600082015250565b60006104a76015836103f4565b91506104b282610471565b602082019050919050565b600060208201905081810360008301526104d68161049a565b9050919050565b6104e681610316565b82525050565b600060208201905061050160008301846104dd565b92915050565b6000815190506105168161035e565b92915050565b600060208284031215610532576105316102f1565b5b600061054084828501610507565b91505092915050565b600060408201905061055e60008301856104dd565b61056b60208301846103ca565b9392505050565b60008115159050919050565b61058781610572565b811461059257600080fd5b50565b6000815190506105a48161057e565b92915050565b6000602082840312156105c0576105bf6102f1565b5b60006105ce84828501610595565b91505092915050565b7f4e487b7100000000000000000000000000000000000000000000000000000000600052601160045260246000fd5b600061061182610354565b915061061c83610354565b9250828203905081811115610634576106336105d7565b5b92915050565b7f4d696e696d756d20746f6b656e20616d6f756e74206e6f74206d657400000000600082015250565b6000610670601c836103f4565b915061067b8261063a565b602082019050919050565b6000602082019050818103600083015261069f81610663565b905091905056fea2646970667358221220063347406ba75f82c2cccdc4be84f3d2b12933ae5bd16a027f5651a9031f3fe664736f6c63430008120033",
					"opcodes": "PUSH1 0x80 PUSH1 0x40 MSTORE CALLVALUE DUP1 ISZERO PUSH2 0x10 JUMPI PUSH1 0x0 DUP1 REVERT JUMPDEST POP PUSH2 0x6DC DUP1 PUSH2 0x20 PUSH1 0x0 CODECOPY PUSH1 0x0 RETURN INVALID PUSH1 0x80 PUSH1 0x40 MSTORE PUSH1 0x4 CALLDATASIZE LT PUSH2 0x1E JUMPI PUSH1 0x0 CALLDATALOAD PUSH1 0xE0 SHR DUP1 PUSH4 0x7A2A0456 EQ PUSH2 0x23 JUMPI JUMPDEST PUSH1 0x0 DUP1 REVERT JUMPDEST PUSH2 0x3D PUSH1 0x4 DUP1 CALLDATASIZE SUB DUP2 ADD SWAP1 PUSH2 0x38 SWAP2 SWAP1 PUSH2 0x38A JUMP JUMPDEST PUSH2 0x53 JUMP JUMPDEST PUSH1 0x40 MLOAD PUSH2 0x4A SWAP2 SWAP1 PUSH2 0x3D9 JUMP JUMPDEST PUSH1 0x40 MLOAD DUP1 SWAP2 SUB SWAP1 RETURN JUMPDEST PUSH1 0x0 DUP1 CALLVALUE GT PUSH2 0x97 JUMPI PUSH1 0x40 MLOAD PUSH32 0x8C379A000000000000000000000000000000000000000000000000000000000 DUP2 MSTORE PUSH1 0x4 ADD PUSH2 0x8E SWAP1 PUSH2 0x451 JUMP JUMPDEST PUSH1 0x40 MLOAD DUP1 SWAP2 SUB SWAP1 REVERT JUMPDEST PUSH1 0x0 PUSH20 0xFFFFFFFFFFFFFFFFFFFFFFFFFFFFFFFFFFFFFFFF AND DUP4 PUSH20 0xFFFFFFFFFFFFFFFFFFFFFFFFFFFFFFFFFFFFFFFF AND SUB PUSH2 0x106 JUMPI PUSH1 0x40 MLOAD PUSH32 0x8C379A000000000000000000000000000000000000000000000000000000000 DUP2 MSTORE PUSH1 0x4 ADD PUSH2 0xFD SWAP1 PUSH2 0x4BD JUMP JUMPDEST PUSH1 0x40 MLOAD DUP1 SWAP2 SUB SWAP1 REVERT JUMPDEST PUSH1 0x0 DUP4 SWAP1 POP PUSH1 0x0 DUP2 PUSH20 0xFFFFFFFFFFFFFFFFFFFFFFFFFFFFFFFFFFFFFFFF AND PUSH4 0x70A08231 ADDRESS PUSH1 0x40 MLOAD DUP3 PUSH4 0xFFFFFFFF AND PUSH1 0xE0 SHL DUP2 MSTORE PUSH1 0x4 ADD PUSH2 0x146 SWAP2 SWAP1 PUSH2 0x4EC JUMP JUMPDEST PUSH1 0x20 PUSH1 0x40 MLOAD DUP1 DUP4 SUB DUP2 DUP7 GAS STATICCALL ISZERO DUP1 ISZERO PUSH2 0x163 JUMPI RETURNDATASIZE PUSH1 0x0 DUP1 RETURNDATACOPY RETURNDATASIZE PUSH1 0x0 REVERT JUMPDEST POP POP POP POP PUSH1 0x40 MLOAD RETURNDATASIZE PUSH1 0x1F NOT PUSH1 0x1F DUP3 ADD AND DUP3 ADD DUP1 PUSH1 0x40 MSTORE POP DUP2 ADD SWAP1 PUSH2 0x187 SWAP2 SWAP1 PUSH2 0x51C JUMP JUMPDEST SWAP1 POP PUSH1 0x0 CALLVALUE SWAP1 POP DUP3 PUSH20 0xFFFFFFFFFFFFFFFFFFFFFFFFFFFFFFFFFFFFFFFF AND PUSH4 0xA9059CBB CALLER DUP4 PUSH1 0x40 MLOAD DUP4 PUSH4 0xFFFFFFFF AND PUSH1 0xE0 SHL DUP2 MSTORE PUSH1 0x4 ADD PUSH2 0x1C9 SWAP3 SWAP2 SWAP1 PUSH2 0x549 JUMP JUMPDEST PUSH1 0x20 PUSH1 0x40 MLOAD DUP1 DUP4 SUB DUP2 PUSH1 0x0 DUP8 GAS CALL ISZERO DUP1 ISZERO PUSH2 0x1E8 JUMPI RETURNDATASIZE PUSH1 0x0 DUP1 RETURNDATACOPY RETURNDATASIZE PUSH1 0x0 REVERT JUMPDEST POP POP POP POP PUSH1 0x40 MLOAD RETURNDATASIZE PUSH1 0x1F NOT PUSH1 0x1F DUP3 ADD AND DUP3 ADD DUP1 PUSH1 0x40 MSTORE POP DUP2 ADD SWAP1 PUSH2 0x20C SWAP2 SWAP1 PUSH2 0x5AA JUMP JUMPDEST POP PUSH1 0x0 DUP4 PUSH20 0xFFFFFFFFFFFFFFFFFFFFFFFFFFFFFFFFFFFFFFFF AND PUSH4 0x70A08231 ADDRESS PUSH1 0x40 MLOAD DUP3 PUSH4 0xFFFFFFFF AND PUSH1 0xE0 SHL DUP2 MSTORE PUSH1 0x4 ADD PUSH2 0x248 SWAP2 SWAP1 PUSH2 0x4EC JUMP JUMPDEST PUSH1 0x20 PUSH1 0x40 MLOAD DUP1 DUP4 SUB DUP2 DUP7 GAS STATICCALL ISZERO DUP1 ISZERO PUSH2 0x265 JUMPI RETURNDATASIZE PUSH1 0x0 DUP1 RETURNDATACOPY RETURNDATASIZE PUSH1 0x0 REVERT JUMPDEST POP POP POP POP PUSH1 0x40 MLOAD RETURNDATASIZE PUSH1 0x1F NOT PUSH1 0x1F DUP3 ADD AND DUP3 ADD DUP1 PUSH1 0x40 MSTORE POP DUP2 ADD SWAP1 PUSH2 0x289 SWAP2 SWAP1 PUSH2 0x51C JUMP JUMPDEST SWAP1 POP DUP6 DUP4 DUP3 PUSH2 0x298 SWAP2 SWAP1 PUSH2 0x606 JUMP JUMPDEST LT ISZERO PUSH2 0x2D9 JUMPI PUSH1 0x40 MLOAD PUSH32 0x8C379A000000000000000000000000000000000000000000000000000000000 DUP2 MSTORE PUSH1 0x4 ADD PUSH2 0x2D0 SWAP1 PUSH2 0x686 JUMP JUMPDEST PUSH1 0x40 MLOAD DUP1 SWAP2 SUB SWAP1 REVERT JUMPDEST DUP3 DUP2 PUSH2 0x2E5 SWAP2 SWAP1 PUSH2 0x606 JUMP JUMPDEST SWAP5 POP POP POP POP POP SWAP3 SWAP2 POP POP JUMP JUMPDEST PUSH1 0x0 DUP1 REVERT JUMPDEST PUSH1 0x0 PUSH20 0xFFFFFFFFFFFFFFFFFFFFFFFFFFFFFFFFFFFFFFFF DUP3 AND SWAP1 POP SWAP2 SWAP1 POP JUMP JUMPDEST PUSH1 0x0 PUSH2 0x321 DUP3 PUSH2 0x2F6 JUMP JUMPDEST SWAP1 POP SWAP2 SWAP1 POP JUMP JUMPDEST PUSH2 0x331 DUP2 PUSH2 0x316 JUMP JUMPDEST DUP2 EQ PUSH2 0x33C JUMPI PUSH1 0x0 DUP1 REVERT JUMPDEST POP JUMP JUMPDEST PUSH1 0x0 DUP2 CALLDATALOAD SWAP1 POP PUSH2 0x34E DUP2 PUSH2 0x328 JUMP JUMPDEST SWAP3 SWAP2 POP POP JUMP JUMPDEST PUSH1 0x0 DUP2 SWAP1 POP SWAP2 SWAP1 POP JUMP JUMPDEST PUSH2 0x367 DUP2 PUSH2 0x354 JUMP JUMPDEST DUP2 EQ PUSH2 0x372 JUMPI PUSH1 0x0 DUP1 REVERT JUMPDEST POP JUMP JUMPDEST PUSH1 0x0 DUP2 CALLDATALOAD SWAP1 POP PUSH2 0x384 DUP2 PUSH2 0x35E JUMP JUMPDEST SWAP3 SWAP2 POP POP JUMP JUMPDEST PUSH1 0x0 DUP1 PUSH1 0x40 DUP4 DUP6 SUB SLT ISZERO PUSH2 0x3A1 JUMPI PUSH2 0x3A0 PUSH2 0x2F1 JUMP JUMPDEST JUMPDEST PUSH1 0x0 PUSH2 0x3AF DUP6 DUP3 DUP7 ADD PUSH2 0x33F JUMP JUMPDEST SWAP3 POP POP PUSH1 0x20 PUSH2 0x3C0 DUP6 DUP3 DUP7 ADD PUSH2 0x375 JUMP JUMPDEST SWAP2 POP POP SWAP3 POP SWAP3 SWAP1 POP JUMP JUMPDEST PUSH2 0x3D3 DUP2 PUSH2 0x354 JUMP JUMPDEST DUP3 MSTORE POP POP JUMP JUMPDEST PUSH1 0x0 PUSH1 0x20 DUP3 ADD SWAP1 POP PUSH2 0x3EE PUSH1 0x0 DUP4 ADD DUP5 PUSH2 0x3CA JUMP JUMPDEST SWAP3 SWAP2 POP POP JUMP JUMPDEST PUSH1 0x0 DUP3 DUP3 MSTORE PUSH1 0x20 DUP3 ADD SWAP1 POP SWAP3 SWAP2 POP POP JUMP JUMPDEST PUSH32 0x4E6F2065746865722073656E7400000000000000000000000000000000000000 PUSH1 0x0 DUP3 ADD MSTORE POP JUMP JUMPDEST PUSH1 0x0 PUSH2 0x43B PUSH1 0xD DUP4 PUSH2 0x3F4 JUMP JUMPDEST SWAP2 POP PUSH2 0x446 DUP3 PUSH2 0x405 JUMP JUMPDEST PUSH1 0x20 DUP3 ADD SWAP1 POP SWAP2 SWAP1 POP JUMP JUMPDEST PUSH1 0x0 PUSH1 0x20 DUP3 ADD SWAP1 POP DUP2 DUP2 SUB PUSH1 0x0 DUP4 ADD MSTORE PUSH2 0x46A DUP2 PUSH2 0x42E JUMP JUMPDEST SWAP1 POP SWAP2 SWAP1 POP JUMP JUMPDEST PUSH32 0x496E76616C696420746F6B656E20616464726573730000000000000000000000 PUSH1 0x0 DUP3 ADD MSTORE POP JUMP JUMPDEST PUSH1 0x0 PUSH2 0x4A7 PUSH1 0x15 DUP4 PUSH2 0x3F4 JUMP JUMPDEST SWAP2 POP PUSH2 0x4B2 DUP3 PUSH2 0x471 JUMP JUMPDEST PUSH1 0x20 DUP3 ADD SWAP1 POP SWAP2 SWAP1 POP JUMP JUMPDEST PUSH1 0x0 PUSH1 0x20 DUP3 ADD SWAP1 POP DUP2 DUP2 SUB PUSH1 0x0 DUP4 ADD MSTORE PUSH2 0x4D6 DUP2 PUSH2 0x49A JUMP JUMPDEST SWAP1 POP SWAP2 SWAP1 POP JUMP JUMPDEST PUSH2 0x4E6 DUP2 PUSH2 0x316 JUMP JUMPDEST DUP3 MSTORE POP POP JUMP JUMPDEST PUSH1 0x0 PUSH1 0x20 DUP3 ADD SWAP1 POP PUSH2 0x501 PUSH1 0x0 DUP4 ADD DUP5 PUSH2 0x4DD JUMP JUMPDEST SWAP3 SWAP2 POP POP JUMP JUMPDEST PUSH1 0x0 DUP2 MLOAD SWAP1 POP PUSH2 0x516 DUP2 PUSH2 0x35E JUMP JUMPDEST SWAP3 SWAP2 POP POP JUMP JUMPDEST PUSH1 0x0 PUSH1 0x20 DUP3 DUP5 SUB SLT ISZERO PUSH2 0x532 JUMPI PUSH2 0x531 PUSH2 0x2F1 JUMP JUMPDEST JUMPDEST PUSH1 0x0 PUSH2 0x540 DUP5 DUP3 DUP6 ADD PUSH2 0x507 JUMP JUMPDEST SWAP2 POP POP SWAP3 SWAP2 POP POP JUMP JUMPDEST PUSH1 0x0 PUSH1 0x40 DUP3 ADD SWAP1 POP PUSH2 0x55E PUSH1 0x0 DUP4 ADD DUP6 PUSH2 0x4DD JUMP JUMPDEST PUSH2 0x56B PUSH1 0x20 DUP4 ADD DUP5 PUSH2 0x3CA JUMP JUMPDEST SWAP4 SWAP3 POP POP POP JUMP JUMPDEST PUSH1 0x0 DUP2 ISZERO ISZERO SWAP1 POP SWAP2 SWAP1 POP JUMP JUMPDEST PUSH2 0x587 DUP2 PUSH2 0x572 JUMP JUMPDEST DUP2 EQ PUSH2 0x592 JUMPI PUSH1 0x0 DUP1 REVERT JUMPDEST POP JUMP JUMPDEST PUSH1 0x0 DUP2 MLOAD SWAP1 POP PUSH2 0x5A4 DUP2 PUSH2 0x57E JUMP JUMPDEST SWAP3 SWAP2 POP POP JUMP JUMPDEST PUSH1 0x0 PUSH1 0x20 DUP3 DUP5 SUB SLT ISZERO PUSH2 0x5C0 JUMPI PUSH2 0x5BF PUSH2 0x2F1 JUMP JUMPDEST JUMPDEST PUSH1 0x0 PUSH2 0x5CE DUP5 DUP3 DUP6 ADD PUSH2 0x595 JUMP JUMPDEST SWAP2 POP POP SWAP3 SWAP2 POP POP JUMP JUMPDEST PUSH32 0x4E487B7100000000000000000000000000000000000000000000000000000000 PUSH1 0x0 MSTORE PUSH1 0x11 PUSH1 0x4 MSTORE PUSH1 0x24 PUSH1 0x0 REVERT JUMPDEST PUSH1 0x0 PUSH2 0x611 DUP3 PUSH2 0x354 JUMP JUMPDEST SWAP2 POP PUSH2 0x61C DUP4 PUSH2 0x354 JUMP JUMPDEST SWAP3 POP DUP3 DUP3 SUB SWAP1 POP DUP2 DUP2 GT ISZERO PUSH2 0x634 JUMPI PUSH2 0x633 PUSH2 0x5D7 JUMP JUMPDEST JUMPDEST SWAP3 SWAP2 POP POP JUMP JUMPDEST PUSH32 0x4D696E696D756D20746F6B656E20616D6F756E74206E6F74206D657400000000 PUSH1 0x0 DUP3 ADD MSTORE POP JUMP JUMPDEST PUSH1 0x0 PUSH2 0x670 PUSH1 0x1C DUP4 PUSH2 0x3F4 JUMP JUMPDEST SWAP2 POP PUSH2 0x67B DUP3 PUSH2 0x63A JUMP JUMPDEST PUSH1 0x20 DUP3 ADD SWAP1 POP SWAP2 SWAP1 POP JUMP JUMPDEST PUSH1 0x0 PUSH1 0x20 DUP3 ADD SWAP1 POP DUP2 DUP2 SUB PUSH1 0x0 DUP4 ADD MSTORE PUSH2 0x69F DUP2 PUSH2 0x663 JUMP JUMPDEST SWAP1 POP SWAP2 SWAP1 POP JUMP INVALID LOG2 PUSH5 0x6970667358 0x22 SLT KECCAK256 MOD CALLER SELFBALANCE BLOCKHASH PUSH12 0xA75F82C2CCCDC4BE84F3D2B1 0x29 CALLER 0xAE JUMPDEST 0xD1 PUSH11 0x27F5651A9031F3FE66473 PUSH16 0x6C634300081200330000000000000000 "
				},
				"gasEstimates": {
					"creation": {
						"codeDepositCost": "351200",
						"executionCost": "386",
						"totalCost": "351586"
					},
					"external": {
						"swapEtherToToken(address,uint256)": "infinite"
					}
				},
				"methodIdentifiers": {
					"swapEtherToToken(address,uint256)": "7a2a0456"
				}
			},
			"storageLayout": {
				"storage": [],
				"types": null
			},
			"userdoc": {
				"kind": "user",
				"methods": {},
				"version": 1
			}
		}
	}
}